{
  "_format": "hh-sol-artifact-1",
  "contractName": "WavePortal",
  "sourceName": "contracts/WavePortal.sol",
  "abi": [
    {
      "inputs": [],
      "stateMutability": "payable",
      "type": "constructor"
    },
    {
      "anonymous": false,
      "inputs": [
        {
          "indexed": true,
          "internalType": "address",
          "name": "from",
          "type": "address"
        },
        {
          "indexed": false,
          "internalType": "uint256",
          "name": "timestamp",
          "type": "uint256"
        },
        {
          "indexed": false,
          "internalType": "string",
          "name": "message",
          "type": "string"
        }
      ],
      "name": "NewWave",
      "type": "event"
    },
    {
      "inputs": [
        {
          "internalType": "uint256",
          "name": "",
          "type": "uint256"
        }
      ],
      "name": "addressArray",
      "outputs": [
        {
          "internalType": "address",
          "name": "",
          "type": "address"
        }
      ],
      "stateMutability": "view",
      "type": "function"
    },
    {
      "inputs": [],
      "name": "getAllAddresse",
      "outputs": [
        {
          "internalType": "address[]",
          "name": "",
          "type": "address[]"
        }
      ],
      "stateMutability": "view",
      "type": "function"
    },
    {
      "inputs": [],
      "name": "getAllWaves",
      "outputs": [
        {
          "components": [
            {
              "internalType": "address",
              "name": "waver",
              "type": "address"
            },
            {
              "internalType": "string",
              "name": "message",
              "type": "string"
            },
            {
              "internalType": "uint256",
              "name": "timestamp",
              "type": "uint256"
            }
          ],
          "internalType": "struct WavePortal.Wave[]",
          "name": "",
          "type": "tuple[]"
        }
      ],
      "stateMutability": "view",
      "type": "function"
    },
    {
      "inputs": [],
      "name": "getBalanceOfAddress",
      "outputs": [
        {
          "internalType": "uint256",
          "name": "",
          "type": "uint256"
        }
      ],
      "stateMutability": "view",
      "type": "function"
    },
    {
      "inputs": [],
      "name": "getTotalWaves",
      "outputs": [
        {
          "internalType": "uint256",
          "name": "",
          "type": "uint256"
        }
      ],
      "stateMutability": "view",
      "type": "function"
    },
    {
      "inputs": [
        {
          "internalType": "address",
          "name": "",
          "type": "address"
        }
      ],
      "name": "lastWavedAt",
      "outputs": [
        {
          "internalType": "uint256",
          "name": "",
          "type": "uint256"
        }
      ],
      "stateMutability": "view",
      "type": "function"
    },
    {
      "inputs": [],
      "name": "myAddress",
      "outputs": [
        {
          "internalType": "address",
          "name": "",
          "type": "address"
        }
      ],
      "stateMutability": "view",
      "type": "function"
    },
    {
      "inputs": [],
      "name": "myMessage",
      "outputs": [
        {
          "internalType": "string",
          "name": "",
          "type": "string"
        }
      ],
      "stateMutability": "view",
      "type": "function"
    },
    {
      "inputs": [
        {
          "internalType": "string",
          "name": "_message",
          "type": "string"
        }
      ],
      "name": "wave",
      "outputs": [],
      "stateMutability": "nonpayable",
      "type": "function"
    }
  ],
  "bytecode": "0x60806040526040518060400160405280600f81526020017f456e7465722061206d6573736167650000000000000000000000000000000000815250600290805190602001906200005192919062000191565b506200009d6040518060400160405280601981526020017f57652068617665206265656e20636f6e73747275637465642100000000000000815250620000c560201b620008b51760201c565b60644442620000ad9190620002c2565b620000b9919062000395565b6004819055506200046b565b6200016581604051602401620000dc919062000282565b6040516020818303038152906040527f41304fac000000000000000000000000000000000000000000000000000000007bffffffffffffffffffffffffffffffffffffffffffffffffffffffff19166020820180517bffffffffffffffffffffffffffffffffffffffffffffffffffffffff83818316178352505050506200016860201b60201c565b50565b60008151905060006a636f6e736f6c652e6c6f679050602083016000808483855afa5050505050565b8280546200019f906200035f565b90600052602060002090601f016020900481019282620001c357600085556200020f565b82601f10620001de57805160ff19168380011785556200020f565b828001600101855582156200020f579182015b828111156200020e578251825591602001919060010190620001f1565b5b5090506200021e919062000222565b5090565b5b808211156200023d57600081600090555060010162000223565b5090565b60006200024e82620002a6565b6200025a8185620002b1565b93506200026c81856020860162000329565b62000277816200045a565b840191505092915050565b600060208201905081810360008301526200029e818462000241565b905092915050565b600081519050919050565b600082825260208201905092915050565b6000620002cf826200031f565b9150620002dc836200031f565b9250827fffffffffffffffffffffffffffffffffffffffffffffffffffffffffffffffff03821115620003145762000313620003cd565b5b828201905092915050565b6000819050919050565b60005b83811015620003495780820151818401526020810190506200032c565b8381111562000359576000848401525b50505050565b600060028204905060018216806200037857607f821691505b602082108114156200038f576200038e6200042b565b5b50919050565b6000620003a2826200031f565b9150620003af836200031f565b925082620003c257620003c1620003fc565b5b828206905092915050565b7f4e487b7100000000000000000000000000000000000000000000000000000000600052601160045260246000fd5b7f4e487b7100000000000000000000000000000000000000000000000000000000600052601260045260246000fd5b7f4e487b7100000000000000000000000000000000000000000000000000000000600052602260045260246000fd5b6000601f19601f8301169050919050565b611408806200047b6000396000f3fe608060405234801561001057600080fd5b50600436106100935760003560e01c806329516e901161006657806329516e9014610122578063449d46c0146101405780639a2cdc081461015c578063a42a46631461017a578063bd43a908146101aa57610093565b80630f96cf341461009857806315502612146100c85780631b008a9f146100e657806326b85ee114610104575b600080fd5b6100b260048036038101906100ad9190610bb2565b6101c8565b6040516100bf9190610f39565b60405180910390f35b6100d0610207565b6040516100dd919061104a565b60405180910390f35b6100ee610248565b6040516100fb9190610f98565b60405180910390f35b61010c6102d6565b6040516101199190610f39565b60405180910390f35b61012a6102fc565b6040516101379190610f54565b60405180910390f35b61015a60048036038101906101559190610b71565b61038a565b005b610164610743565b604051610171919061104a565b60405180910390f35b610194600480360381019061018f9190610b48565b61074c565b6040516101a1919061104a565b60405180910390f35b6101b2610764565b6040516101bf9190610f76565b60405180910390f35b600181815481106101d857600080fd5b906000526020600020016000915054906101000a900473ffffffffffffffffffffffffffffffffffffffff1681565b6000600360009054906101000a900473ffffffffffffffffffffffffffffffffffffffff1673ffffffffffffffffffffffffffffffffffffffff1631905090565b6002805461025590611274565b80601f016020809104026020016040519081016040528092919081815260200182805461028190611274565b80156102ce5780601f106102a3576101008083540402835291602001916102ce565b820191906000526020600020905b8154815290600101906020018083116102b157829003601f168201915b505050505081565b600360009054906101000a900473ffffffffffffffffffffffffffffffffffffffff1681565b6060600180548060200260200160405190810160405280929190818152602001828054801561038057602002820191906000526020600020905b8160009054906101000a900473ffffffffffffffffffffffffffffffffffffffff1673ffffffffffffffffffffffffffffffffffffffff1681526020019060010190808311610336575b5050505050905090565b42601e600560003373ffffffffffffffffffffffffffffffffffffffff1673ffffffffffffffffffffffffffffffffffffffff168152602001908152602001600020546103d791906111a0565b10610417576040517f08c379a000000000000000000000000000000000000000000000000000000000815260040161040e9061100a565b60405180910390fd5b42600560003373ffffffffffffffffffffffffffffffffffffffff1673ffffffffffffffffffffffffffffffffffffffff16815260200190815260200160002081905550600160008082825461046d91906111a0565b925050819055506104b36040518060400160405280600d81526020017f25732068617320776176656421000000000000000000000000000000000000008152503361094e565b600660405180606001604052803373ffffffffffffffffffffffffffffffffffffffff16815260200183815260200142815250908060018154018082558091505060019003906000526020600020906003020160009091909190915060008201518160000160006101000a81548173ffffffffffffffffffffffffffffffffffffffff021916908373ffffffffffffffffffffffffffffffffffffffff1602179055506020820151816001019080519060200190610572929190610a13565b506040820151816002015550506064600454424461059091906111a0565b61059a91906111a0565b6105a491906112a6565b6004819055506032600454116106f0576105f36040518060400160405280600781526020017f257320776f6e21000000000000000000000000000000000000000000000000008152503361094e565b6000655af3107a4000905047811115610641576040517f08c379a00000000000000000000000000000000000000000000000000000000081526004016106389061102a565b60405180910390fd5b60003373ffffffffffffffffffffffffffffffffffffffff168260405161066790610f24565b60006040518083038185875af1925050503d80600081146106a4576040519150601f19603f3d011682016040523d82523d6000602084013e6106a9565b606091505b50509050806106ed576040517f08c379a00000000000000000000000000000000000000000000000000000000081526004016106e490610fea565b60405180910390fd5b50505b3373ffffffffffffffffffffffffffffffffffffffff167f5f7e16dc676677766a70e9c5628aa6c54ddb8b6e5188e2ae1e1f17f1ffbea7164283604051610738929190611065565b60405180910390a250565b60008054905090565b60056020528060005260406000206000915090505481565b60606006805480602002602001604051908101604052809291908181526020016000905b828210156108ac57838290600052602060002090600302016040518060600160405290816000820160009054906101000a900473ffffffffffffffffffffffffffffffffffffffff1673ffffffffffffffffffffffffffffffffffffffff1673ffffffffffffffffffffffffffffffffffffffff16815260200160018201805461081190611274565b80601f016020809104026020016040519081016040528092919081815260200182805461083d90611274565b801561088a5780601f1061085f5761010080835404028352916020019161088a565b820191906000526020600020905b81548152906001019060200180831161086d57829003601f168201915b5050505050815260200160028201548152505081526020019060010190610788565b50505050905090565b61094b816040516024016108c99190610f98565b6040516020818303038152906040527f41304fac000000000000000000000000000000000000000000000000000000007bffffffffffffffffffffffffffffffffffffffffffffffffffffffff19166020820180517bffffffffffffffffffffffffffffffffffffffffffffffffffffffff83818316178352505050506109ea565b50565b6109e68282604051602401610964929190610fba565b6040516020818303038152906040527f319af333000000000000000000000000000000000000000000000000000000007bffffffffffffffffffffffffffffffffffffffffffffffffffffffff19166020820180517bffffffffffffffffffffffffffffffffffffffffffffffffffffffff83818316178352505050506109ea565b5050565b60008151905060006a636f6e736f6c652e6c6f679050602083016000808483855afa5050505050565b828054610a1f90611274565b90600052602060002090601f016020900481019282610a415760008555610a88565b82601f10610a5a57805160ff1916838001178555610a88565b82800160010185558215610a88579182015b82811115610a87578251825591602001919060010190610a6c565b5b509050610a959190610a99565b5090565b5b80821115610ab2576000816000905550600101610a9a565b5090565b6000610ac9610ac4846110c6565b611095565b905082815260208101848484011115610ae157600080fd5b610aec848285611232565b509392505050565b600081359050610b03816113a4565b92915050565b600082601f830112610b1a57600080fd5b8135610b2a848260208601610ab6565b91505092915050565b600081359050610b42816113bb565b92915050565b600060208284031215610b5a57600080fd5b6000610b6884828501610af4565b91505092915050565b600060208284031215610b8357600080fd5b600082013567ffffffffffffffff811115610b9d57600080fd5b610ba984828501610b09565b91505092915050565b600060208284031215610bc457600080fd5b6000610bd284828501610b33565b91505092915050565b6000610be78383610c07565b60208301905092915050565b6000610bff8383610eb6565b905092915050565b610c10816111f6565b82525050565b610c1f816111f6565b82525050565b6000610c3082611116565b610c3a8185611151565b9350610c45836110f6565b8060005b83811015610c76578151610c5d8882610bdb565b9750610c6883611137565b925050600181019050610c49565b5085935050505092915050565b6000610c8e82611121565b610c988185611162565b935083602082028501610caa85611106565b8060005b85811015610ce65784840389528151610cc78582610bf3565b9450610cd283611144565b925060208a01995050600181019050610cae565b50829750879550505050505092915050565b6000610d038261112c565b610d0d818561117e565b9350610d1d818560208601611241565b610d2681611393565b840191505092915050565b6000610d3c8261112c565b610d46818561118f565b9350610d56818560208601611241565b610d5f81611393565b840191505092915050565b6000610d7760278361118f565b91507f4661696c656420746f207769746864726177206d6f6e65792066726f6d20636f60008301527f6e74726163742e000000000000000000000000000000000000000000000000006020830152604082019050919050565b6000610ddd60298361118f565b91507f4d7573742077616974203330207365636f6e6473206265666f7265207761766960008301527f6e6720616761696e2e00000000000000000000000000000000000000000000006020830152604082019050919050565b6000610e4360358361118f565b91507f547279696e6720746f207769746864726177206d6f7265206d6f6e657920746860008301527f616e207468657920636f6e7472616374206861732e00000000000000000000006020830152604082019050919050565b6000610ea9600083611173565b9150600082019050919050565b6000606083016000830151610ece6000860182610c07565b5060208301518482036020860152610ee68282610cf8565b9150506040830151610efb6040860182610f06565b508091505092915050565b610f0f81611228565b82525050565b610f1e81611228565b82525050565b6000610f2f82610e9c565b9150819050919050565b6000602082019050610f4e6000830184610c16565b92915050565b60006020820190508181036000830152610f6e8184610c25565b905092915050565b60006020820190508181036000830152610f908184610c83565b905092915050565b60006020820190508181036000830152610fb28184610d31565b905092915050565b60006040820190508181036000830152610fd48185610d31565b9050610fe36020830184610c16565b9392505050565b6000602082019050818103600083015261100381610d6a565b9050919050565b6000602082019050818103600083015261102381610dd0565b9050919050565b6000602082019050818103600083015261104381610e36565b9050919050565b600060208201905061105f6000830184610f15565b92915050565b600060408201905061107a6000830185610f15565b818103602083015261108c8184610d31565b90509392505050565b6000604051905081810181811067ffffffffffffffff821117156110bc576110bb611364565b5b8060405250919050565b600067ffffffffffffffff8211156110e1576110e0611364565b5b601f19601f8301169050602081019050919050565b6000819050602082019050919050565b6000819050602082019050919050565b600081519050919050565b600081519050919050565b600081519050919050565b6000602082019050919050565b6000602082019050919050565b600082825260208201905092915050565b600082825260208201905092915050565b600081905092915050565b600082825260208201905092915050565b600082825260208201905092915050565b60006111ab82611228565b91506111b683611228565b9250827fffffffffffffffffffffffffffffffffffffffffffffffffffffffffffffffff038211156111eb576111ea6112d7565b5b828201905092915050565b600061120182611208565b9050919050565b600073ffffffffffffffffffffffffffffffffffffffff82169050919050565b6000819050919050565b82818337600083830152505050565b60005b8381101561125f578082015181840152602081019050611244565b8381111561126e576000848401525b50505050565b6000600282049050600182168061128c57607f821691505b602082108114156112a05761129f611335565b5b50919050565b60006112b182611228565b91506112bc83611228565b9250826112cc576112cb611306565b5b828206905092915050565b7f4e487b7100000000000000000000000000000000000000000000000000000000600052601160045260246000fd5b7f4e487b7100000000000000000000000000000000000000000000000000000000600052601260045260246000fd5b7f4e487b7100000000000000000000000000000000000000000000000000000000600052602260045260246000fd5b7f4e487b7100000000000000000000000000000000000000000000000000000000600052604160045260246000fd5b6000601f19601f8301169050919050565b6113ad816111f6565b81146113b857600080fd5b50565b6113c481611228565b81146113cf57600080fd5b5056fea2646970667358221220679455fe53cbf3983bd4578d9b9c5d234dbbe128b6046a70d29cc8d6b96fb1b364736f6c63430008000033",
  "linkReferences": {},
  "deployedLinkReferences": {}
}