{
  "_format": "hh-sol-artifact-1",
  "contractName": "WavePortal",
  "sourceName": "contracts/WavePortal.sol",
  "abi": [
    {
      "inputs": [],
      "stateMutability": "nonpayable",
      "type": "constructor"
    },
    {
      "inputs": [
        {
          "internalType": "uint256",
          "name": "",
          "type": "uint256"
        }
      ],
      "name": "addressArray",
      "outputs": [
        {
          "internalType": "address",
          "name": "",
          "type": "address"
        }
      ],
      "stateMutability": "view",
      "type": "function"
    },
    {
      "inputs": [],
      "name": "getAllAddresse",
      "outputs": [
        {
          "internalType": "address[]",
          "name": "",
          "type": "address[]"
        }
      ],
      "stateMutability": "view",
      "type": "function"
    },
    {
      "inputs": [],
      "name": "getBalanceOfAddress",
      "outputs": [
        {
          "internalType": "uint256",
          "name": "",
          "type": "uint256"
        }
      ],
      "stateMutability": "view",
      "type": "function"
    },
    {
      "inputs": [],
      "name": "getTotalWaves",
      "outputs": [
        {
          "internalType": "uint256",
          "name": "",
          "type": "uint256"
        }
      ],
      "stateMutability": "view",
      "type": "function"
    },
    {
      "inputs": [],
      "name": "myAddress",
      "outputs": [
        {
          "internalType": "address",
          "name": "",
          "type": "address"
        }
      ],
      "stateMutability": "view",
      "type": "function"
    },
    {
      "inputs": [],
      "name": "myMessage",
      "outputs": [
        {
          "internalType": "string",
          "name": "",
          "type": "string"
        }
      ],
      "stateMutability": "view",
      "type": "function"
    },
    {
      "inputs": [
        {
          "internalType": "string",
          "name": "_myMessage",
          "type": "string"
        }
      ],
      "name": "setMyMessage",
      "outputs": [],
      "stateMutability": "nonpayable",
      "type": "function"
    },
    {
      "inputs": [],
      "name": "wave",
      "outputs": [],
      "stateMutability": "nonpayable",
      "type": "function"
    }
  ],
  "bytecode": "0x60806040526040518060400160405280600f81526020017f456e7465722061206d6573736167650000000000000000000000000000000000815250600290805190602001906200005192919062000161565b503480156200005f57600080fd5b506200008f60405180606001604052806027815260200162000f8c602791396200009560201b6200045d1760201c565b6200033e565b6200013581604051602401620000ac919062000252565b6040516020818303038152906040527f41304fac000000000000000000000000000000000000000000000000000000007bffffffffffffffffffffffffffffffffffffffffffffffffffffffff19166020820180517bffffffffffffffffffffffffffffffffffffffffffffffffffffffff83818316178352505050506200013860201b60201c565b50565b60008151905060006a636f6e736f6c652e6c6f679050602083016000808483855afa5050505050565b8280546200016f90620002c8565b90600052602060002090601f016020900481019282620001935760008555620001df565b82601f10620001ae57805160ff1916838001178555620001df565b82800160010185558215620001df579182015b82811115620001de578251825591602001919060010190620001c1565b5b509050620001ee9190620001f2565b5090565b5b808211156200020d576000816000905550600101620001f3565b5090565b60006200021e8262000276565b6200022a818562000281565b93506200023c81856020860162000292565b62000247816200032d565b840191505092915050565b600060208201905081810360008301526200026e818462000211565b905092915050565b600081519050919050565b600082825260208201905092915050565b60005b83811015620002b257808201518184015260208101905062000295565b83811115620002c2576000848401525b50505050565b60006002820490506001821680620002e157607f821691505b60208210811415620002f857620002f7620002fe565b5b50919050565b7f4e487b7100000000000000000000000000000000000000000000000000000000600052602260045260246000fd5b6000601f19601f8301169050919050565b610c3e806200034e6000396000f3fe608060405234801561001057600080fd5b50600436106100885760003560e01c806329516e901161005b57806329516e90146101175780636fe15b44146101355780639a2cdc081461013f578063bcd1b69b1461015d57610088565b80630f96cf341461008d57806315502612146100bd5780631b008a9f146100db57806326b85ee1146100f9575b600080fd5b6100a760048036038101906100a291906107b8565b610179565b6040516100b491906108bd565b60405180910390f35b6100c56101b8565b6040516100d2919061097c565b60405180910390f35b6100e36101f9565b6040516100f091906108fa565b60405180910390f35b610101610287565b60405161010e91906108bd565b60405180910390f35b61011f6102ad565b60405161012c91906108d8565b60405180910390f35b61013d61033b565b005b6101476103f8565b604051610154919061097c565b60405180910390f35b61017760048036038101906101729190610777565b610443565b005b6001818154811061018957600080fd5b906000526020600020016000915054906101000a900473ffffffffffffffffffffffffffffffffffffffff1681565b6000600360009054906101000a900473ffffffffffffffffffffffffffffffffffffffff1673ffffffffffffffffffffffffffffffffffffffff1631905090565b6002805461020690610b21565b80601f016020809104026020016040519081016040528092919081815260200182805461023290610b21565b801561027f5780601f106102545761010080835404028352916020019161027f565b820191906000526020600020905b81548152906001019060200180831161026257829003601f168201915b505050505081565b600360009054906101000a900473ffffffffffffffffffffffffffffffffffffffff1681565b6060600180548060200260200160405190810160405280929190818152602001828054801561033157602002820191906000526020600020905b8160009054906101000a900473ffffffffffffffffffffffffffffffffffffffff1673ffffffffffffffffffffffffffffffffffffffff16815260200190600101908083116102e7575b5050505050905090565b600160008082825461034d9190610a4d565b925050819055506001339080600181540180825580915050600190039060005260206000200160009091909190916101000a81548173ffffffffffffffffffffffffffffffffffffffff021916908373ffffffffffffffffffffffffffffffffffffffff1602179055506103f66040518060400160405280600d81526020017f2573206861732077617665642100000000000000000000000000000000000000815250336104f6565b565b600061043b6040518060400160405280601781526020017f5765206861766520256420746f74616c20776176657321000000000000000000815250600054610592565b600054905090565b8060029080519060200190610459929190610657565b5050565b6104f38160405160240161047191906108fa565b6040516020818303038152906040527f41304fac000000000000000000000000000000000000000000000000000000007bffffffffffffffffffffffffffffffffffffffffffffffffffffffff19166020820180517bffffffffffffffffffffffffffffffffffffffffffffffffffffffff838183161783525050505061062e565b50565b61058e828260405160240161050c92919061091c565b6040516020818303038152906040527f319af333000000000000000000000000000000000000000000000000000000007bffffffffffffffffffffffffffffffffffffffffffffffffffffffff19166020820180517bffffffffffffffffffffffffffffffffffffffffffffffffffffffff838183161783525050505061062e565b5050565b61062a82826040516024016105a892919061094c565b6040516020818303038152906040527f9710a9d0000000000000000000000000000000000000000000000000000000007bffffffffffffffffffffffffffffffffffffffffffffffffffffffff19166020820180517bffffffffffffffffffffffffffffffffffffffffffffffffffffffff838183161783525050505061062e565b5050565b60008151905060006a636f6e736f6c652e6c6f679050602083016000808483855afa5050505050565b82805461066390610b21565b90600052602060002090601f01602090048101928261068557600085556106cc565b82601f1061069e57805160ff19168380011785556106cc565b828001600101855582156106cc579182015b828111156106cb5782518255916020019190600101906106b0565b5b5090506106d991906106dd565b5090565b5b808211156106f65760008160009055506001016106de565b5090565b600061070d610708846109c8565b610997565b90508281526020810184848401111561072557600080fd5b610730848285610adf565b509392505050565b600082601f83011261074957600080fd5b81356107598482602086016106fa565b91505092915050565b60008135905061077181610bf1565b92915050565b60006020828403121561078957600080fd5b600082013567ffffffffffffffff8111156107a357600080fd5b6107af84828501610738565b91505092915050565b6000602082840312156107ca57600080fd5b60006107d884828501610762565b91505092915050565b60006107ed83836107f9565b60208301905092915050565b61080281610aa3565b82525050565b61081181610aa3565b82525050565b600061082282610a08565b61082c8185610a2b565b9350610837836109f8565b8060005b8381101561086857815161084f88826107e1565b975061085a83610a1e565b92505060018101905061083b565b5085935050505092915050565b600061088082610a13565b61088a8185610a3c565b935061089a818560208601610aee565b6108a381610be0565b840191505092915050565b6108b781610ad5565b82525050565b60006020820190506108d26000830184610808565b92915050565b600060208201905081810360008301526108f28184610817565b905092915050565b600060208201905081810360008301526109148184610875565b905092915050565b600060408201905081810360008301526109368185610875565b90506109456020830184610808565b9392505050565b600060408201905081810360008301526109668185610875565b905061097560208301846108ae565b9392505050565b600060208201905061099160008301846108ae565b92915050565b6000604051905081810181811067ffffffffffffffff821117156109be576109bd610bb1565b5b8060405250919050565b600067ffffffffffffffff8211156109e3576109e2610bb1565b5b601f19601f8301169050602081019050919050565b6000819050602082019050919050565b600081519050919050565b600081519050919050565b6000602082019050919050565b600082825260208201905092915050565b600082825260208201905092915050565b6000610a5882610ad5565b9150610a6383610ad5565b9250827fffffffffffffffffffffffffffffffffffffffffffffffffffffffffffffffff03821115610a9857610a97610b53565b5b828201905092915050565b6000610aae82610ab5565b9050919050565b600073ffffffffffffffffffffffffffffffffffffffff82169050919050565b6000819050919050565b82818337600083830152505050565b60005b83811015610b0c578082015181840152602081019050610af1565b83811115610b1b576000848401525b50505050565b60006002820490506001821680610b3957607f821691505b60208210811415610b4d57610b4c610b82565b5b50919050565b7f4e487b7100000000000000000000000000000000000000000000000000000000600052601160045260246000fd5b7f4e487b7100000000000000000000000000000000000000000000000000000000600052602260045260246000fd5b7f4e487b7100000000000000000000000000000000000000000000000000000000600052604160045260246000fd5b6000601f19601f8301169050919050565b610bfa81610ad5565b8114610c0557600080fd5b5056fea26469706673582212208c70cef10a5863797c0773c4c897d31e5347ad394030d949d2f3c4d60c7115ca64736f6c6343000800003357656c636f6d652066726f6d2053696d6f6e277320736d61727420636f6e74726163742062726f",
  "linkReferences": {},
  "deployedLinkReferences": {}
}