{
  "_format": "hh-sol-artifact-1",
  "contractName": "WavePortal",
  "sourceName": "contracts/WavePortal.sol",
  "abi": [
    {
      "inputs": [],
      "stateMutability": "nonpayable",
      "type": "constructor"
    },
    {
      "anonymous": false,
      "inputs": [
        {
          "indexed": true,
          "internalType": "address",
          "name": "from",
          "type": "address"
        },
        {
          "indexed": false,
          "internalType": "uint256",
          "name": "timestamp",
          "type": "uint256"
        },
        {
          "indexed": false,
          "internalType": "string",
          "name": "message",
          "type": "string"
        }
      ],
      "name": "NewWave",
      "type": "event"
    },
    {
      "inputs": [
        {
          "internalType": "uint256",
          "name": "",
          "type": "uint256"
        }
      ],
      "name": "addressArray",
      "outputs": [
        {
          "internalType": "address",
          "name": "",
          "type": "address"
        }
      ],
      "stateMutability": "view",
      "type": "function"
    },
    {
      "inputs": [],
      "name": "getAllAddresse",
      "outputs": [
        {
          "internalType": "address[]",
          "name": "",
          "type": "address[]"
        }
      ],
      "stateMutability": "view",
      "type": "function"
    },
    {
      "inputs": [],
      "name": "getAllWaves",
      "outputs": [
        {
          "components": [
            {
              "internalType": "address",
              "name": "waver",
              "type": "address"
            },
            {
              "internalType": "string",
              "name": "message",
              "type": "string"
            },
            {
              "internalType": "uint256",
              "name": "timestamp",
              "type": "uint256"
            }
          ],
          "internalType": "struct WavePortal.Wave[]",
          "name": "",
          "type": "tuple[]"
        }
      ],
      "stateMutability": "view",
      "type": "function"
    },
    {
      "inputs": [],
      "name": "getBalanceOfAddress",
      "outputs": [
        {
          "internalType": "uint256",
          "name": "",
          "type": "uint256"
        }
      ],
      "stateMutability": "view",
      "type": "function"
    },
    {
      "inputs": [],
      "name": "getTotalWaves",
      "outputs": [
        {
          "internalType": "uint256",
          "name": "",
          "type": "uint256"
        }
      ],
      "stateMutability": "view",
      "type": "function"
    },
    {
      "inputs": [],
      "name": "myAddress",
      "outputs": [
        {
          "internalType": "address",
          "name": "",
          "type": "address"
        }
      ],
      "stateMutability": "view",
      "type": "function"
    },
    {
      "inputs": [],
      "name": "myMessage",
      "outputs": [
        {
          "internalType": "string",
          "name": "",
          "type": "string"
        }
      ],
      "stateMutability": "view",
      "type": "function"
    },
    {
      "inputs": [
        {
          "internalType": "string",
          "name": "_myMessage",
          "type": "string"
        }
      ],
      "name": "setMyMessage",
      "outputs": [],
      "stateMutability": "nonpayable",
      "type": "function"
    },
    {
      "inputs": [
        {
          "internalType": "string",
          "name": "_message",
          "type": "string"
        }
      ],
      "name": "wave",
      "outputs": [],
      "stateMutability": "nonpayable",
      "type": "function"
    }
  ],
  "bytecode": "0x60806040526040518060400160405280600f81526020017f456e7465722061206d6573736167650000000000000000000000000000000000815250600290805190602001906200005192919062000161565b503480156200005f57600080fd5b506200008f604051806060016040528060278152602001620013f2602791396200009560201b620007061760201c565b6200033e565b6200013581604051602401620000ac919062000252565b6040516020818303038152906040527f41304fac000000000000000000000000000000000000000000000000000000007bffffffffffffffffffffffffffffffffffffffffffffffffffffffff19166020820180517bffffffffffffffffffffffffffffffffffffffffffffffffffffffff83818316178352505050506200013860201b60201c565b50565b60008151905060006a636f6e736f6c652e6c6f679050602083016000808483855afa5050505050565b8280546200016f90620002c8565b90600052602060002090601f016020900481019282620001935760008555620001df565b82601f10620001ae57805160ff1916838001178555620001df565b82800160010185558215620001df579182015b82811115620001de578251825591602001919060010190620001c1565b5b509050620001ee9190620001f2565b5090565b5b808211156200020d576000816000905550600101620001f3565b5090565b60006200021e8262000276565b6200022a818562000281565b93506200023c81856020860162000292565b62000247816200032d565b840191505092915050565b600060208201905081810360008301526200026e818462000211565b905092915050565b600081519050919050565b600082825260208201905092915050565b60005b83811015620002b257808201518184015260208101905062000295565b83811115620002c2576000848401525b50505050565b60006002820490506001821680620002e157607f821691505b60208210811415620002f857620002f7620002fe565b5b50919050565b7f4e487b7100000000000000000000000000000000000000000000000000000000600052602260045260246000fd5b6000601f19601f8301169050919050565b6110a4806200034e6000396000f3fe608060405234801561001057600080fd5b50600436106100935760003560e01c806329516e901161006657806329516e9014610122578063449d46c0146101405780639a2cdc081461015c578063bcd1b69b1461017a578063bd43a9081461019657610093565b80630f96cf341461009857806315502612146100c85780631b008a9f146100e657806326b85ee114610104575b600080fd5b6100b260048036038101906100ad9190610a61565b6101b4565b6040516100bf9190610c87565b60405180910390f35b6100d06101f3565b6040516100dd9190610d68565b60405180910390f35b6100ee610234565b6040516100fb9190610ce6565b60405180910390f35b61010c6102c2565b6040516101199190610c87565b60405180910390f35b61012a6102e8565b6040516101379190610ca2565b60405180910390f35b61015a60048036038101906101559190610a20565b610376565b005b610164610550565b6040516101719190610d68565b60405180910390f35b610194600480360381019061018f9190610a20565b61059b565b005b61019e6105b5565b6040516101ab9190610cc4565b60405180910390f35b600181815481106101c457600080fd5b906000526020600020016000915054906101000a900473ffffffffffffffffffffffffffffffffffffffff1681565b6000600360009054906101000a900473ffffffffffffffffffffffffffffffffffffffff1673ffffffffffffffffffffffffffffffffffffffff1631905090565b6002805461024190610f87565b80601f016020809104026020016040519081016040528092919081815260200182805461026d90610f87565b80156102ba5780601f1061028f576101008083540402835291602001916102ba565b820191906000526020600020905b81548152906001019060200180831161029d57829003601f168201915b505050505081565b600360009054906101000a900473ffffffffffffffffffffffffffffffffffffffff1681565b6060600180548060200260200160405190810160405280929190818152602001828054801561036c57602002820191906000526020600020905b8160009054906101000a900473ffffffffffffffffffffffffffffffffffffffff1673ffffffffffffffffffffffffffffffffffffffff1681526020019060010190808311610322575b5050505050905090565b60016000808282546103889190610eb3565b925050819055506001339080600181540180825580915050600190039060005260206000200160009091909190916101000a81548173ffffffffffffffffffffffffffffffffffffffff021916908373ffffffffffffffffffffffffffffffffffffffff160217905550600460405180606001604052803373ffffffffffffffffffffffffffffffffffffffff16815260200183815260200142815250908060018154018082558091505060019003906000526020600020906003020160009091909190915060008201518160000160006101000a81548173ffffffffffffffffffffffffffffffffffffffff021916908373ffffffffffffffffffffffffffffffffffffffff16021790555060208201518160010190805190602001906104b1929190610900565b506040820151816002015550503373ffffffffffffffffffffffffffffffffffffffff167f5f7e16dc676677766a70e9c5628aa6c54ddb8b6e5188e2ae1e1f17f1ffbea7164283604051610506929190610d83565b60405180910390a261054d6040518060400160405280600d81526020017f25732068617320776176656421000000000000000000000000000000000000008152503361079f565b50565b60006105936040518060400160405280601781526020017f5765206861766520256420746f74616c2077617665732100000000000000000081525060005461083b565b600054905090565b80600290805190602001906105b1929190610900565b5050565b60606004805480602002602001604051908101604052809291908181526020016000905b828210156106fd57838290600052602060002090600302016040518060600160405290816000820160009054906101000a900473ffffffffffffffffffffffffffffffffffffffff1673ffffffffffffffffffffffffffffffffffffffff1673ffffffffffffffffffffffffffffffffffffffff16815260200160018201805461066290610f87565b80601f016020809104026020016040519081016040528092919081815260200182805461068e90610f87565b80156106db5780601f106106b0576101008083540402835291602001916106db565b820191906000526020600020905b8154815290600101906020018083116106be57829003601f168201915b50505050508152602001600282015481525050815260200190600101906105d9565b50505050905090565b61079c8160405160240161071a9190610ce6565b6040516020818303038152906040527f41304fac000000000000000000000000000000000000000000000000000000007bffffffffffffffffffffffffffffffffffffffffffffffffffffffff19166020820180517bffffffffffffffffffffffffffffffffffffffffffffffffffffffff83818316178352505050506108d7565b50565b61083782826040516024016107b5929190610d08565b6040516020818303038152906040527f319af333000000000000000000000000000000000000000000000000000000007bffffffffffffffffffffffffffffffffffffffffffffffffffffffff19166020820180517bffffffffffffffffffffffffffffffffffffffffffffffffffffffff83818316178352505050506108d7565b5050565b6108d38282604051602401610851929190610d38565b6040516020818303038152906040527f9710a9d0000000000000000000000000000000000000000000000000000000007bffffffffffffffffffffffffffffffffffffffffffffffffffffffff19166020820180517bffffffffffffffffffffffffffffffffffffffffffffffffffffffff83818316178352505050506108d7565b5050565b60008151905060006a636f6e736f6c652e6c6f679050602083016000808483855afa5050505050565b82805461090c90610f87565b90600052602060002090601f01602090048101928261092e5760008555610975565b82601f1061094757805160ff1916838001178555610975565b82800160010185558215610975579182015b82811115610974578251825591602001919060010190610959565b5b5090506109829190610986565b5090565b5b8082111561099f576000816000905550600101610987565b5090565b60006109b66109b184610de4565b610db3565b9050828152602081018484840111156109ce57600080fd5b6109d9848285610f45565b509392505050565b600082601f8301126109f257600080fd5b8135610a028482602086016109a3565b91505092915050565b600081359050610a1a81611057565b92915050565b600060208284031215610a3257600080fd5b600082013567ffffffffffffffff811115610a4c57600080fd5b610a58848285016109e1565b91505092915050565b600060208284031215610a7357600080fd5b6000610a8184828501610a0b565b91505092915050565b6000610a968383610ab6565b60208301905092915050565b6000610aae8383610c19565b905092915050565b610abf81610f09565b82525050565b610ace81610f09565b82525050565b6000610adf82610e34565b610ae98185610e6f565b9350610af483610e14565b8060005b83811015610b25578151610b0c8882610a8a565b9750610b1783610e55565b925050600181019050610af8565b5085935050505092915050565b6000610b3d82610e3f565b610b478185610e80565b935083602082028501610b5985610e24565b8060005b85811015610b955784840389528151610b768582610aa2565b9450610b8183610e62565b925060208a01995050600181019050610b5d565b50829750879550505050505092915050565b6000610bb282610e4a565b610bbc8185610e91565b9350610bcc818560208601610f54565b610bd581611046565b840191505092915050565b6000610beb82610e4a565b610bf58185610ea2565b9350610c05818560208601610f54565b610c0e81611046565b840191505092915050565b6000606083016000830151610c316000860182610ab6565b5060208301518482036020860152610c498282610ba7565b9150506040830151610c5e6040860182610c69565b508091505092915050565b610c7281610f3b565b82525050565b610c8181610f3b565b82525050565b6000602082019050610c9c6000830184610ac5565b92915050565b60006020820190508181036000830152610cbc8184610ad4565b905092915050565b60006020820190508181036000830152610cde8184610b32565b905092915050565b60006020820190508181036000830152610d008184610be0565b905092915050565b60006040820190508181036000830152610d228185610be0565b9050610d316020830184610ac5565b9392505050565b60006040820190508181036000830152610d528185610be0565b9050610d616020830184610c78565b9392505050565b6000602082019050610d7d6000830184610c78565b92915050565b6000604082019050610d986000830185610c78565b8181036020830152610daa8184610be0565b90509392505050565b6000604051905081810181811067ffffffffffffffff82111715610dda57610dd9611017565b5b8060405250919050565b600067ffffffffffffffff821115610dff57610dfe611017565b5b601f19601f8301169050602081019050919050565b6000819050602082019050919050565b6000819050602082019050919050565b600081519050919050565b600081519050919050565b600081519050919050565b6000602082019050919050565b6000602082019050919050565b600082825260208201905092915050565b600082825260208201905092915050565b600082825260208201905092915050565b600082825260208201905092915050565b6000610ebe82610f3b565b9150610ec983610f3b565b9250827fffffffffffffffffffffffffffffffffffffffffffffffffffffffffffffffff03821115610efe57610efd610fb9565b5b828201905092915050565b6000610f1482610f1b565b9050919050565b600073ffffffffffffffffffffffffffffffffffffffff82169050919050565b6000819050919050565b82818337600083830152505050565b60005b83811015610f72578082015181840152602081019050610f57565b83811115610f81576000848401525b50505050565b60006002820490506001821680610f9f57607f821691505b60208210811415610fb357610fb2610fe8565b5b50919050565b7f4e487b7100000000000000000000000000000000000000000000000000000000600052601160045260246000fd5b7f4e487b7100000000000000000000000000000000000000000000000000000000600052602260045260246000fd5b7f4e487b7100000000000000000000000000000000000000000000000000000000600052604160045260246000fd5b6000601f19601f8301169050919050565b61106081610f3b565b811461106b57600080fd5b5056fea26469706673582212208b8b0f97977766e8e987872caa9e4d83764d6a7f786b7817abdf59a63e9906b264736f6c6343000800003357656c636f6d652066726f6d2053696d6f6e277320736d61727420636f6e74726163742062726f",
  "linkReferences": {},
  "deployedLinkReferences": {}
}